:0409190002080000D0
:0C090300D2807FFA7E001208E3C280223E
:10088C00D2851209033081FD30810A0509E5097012
:10089C00F7050880F3D3E5099422E5089401500884
:1008AC00C282D283D2848028D3E5099498E5089437
:1008BC00015004D282800DD3E5099488E508940296
:1008CC005008C282C283C2848006C283C282C284A0
:0708DC00E4F508F50980AB0B
:1008E300E4FDFCC3ED9FEC9E5015E4FBFA0BBB004B
:0F08F300010AEB647D4A70F50DBD00010C80E435
:0109020022D2
:0A090F00EF1F70011E144E70F72256
:03000000020800F3
:0C080000787FE4F6D8FD758109020847F6
:10080C0002088CE493A3F8E493A34003F68001F26E
:10081C0008DFF48029E493A3F85407240CC8C333ED
:10082C00C4540F4420C8834004F456800146F6DFBC
:10083C00E4800B0102040810204080900919E47E2A
:10084C00019360BCA3FF543F30E509541FFEE493B1
:10085C00A360010ECF54C025E060A840B8E493A378
:10086C00FAE493A3F8E493A3C8C582C8CAC583CAA3
:10087C00F0A3C8C582C8CAC583CADFE9DEE780BE5B
:01091D0000D9
:00000001FF
